:020000040800F2
:10000000000600209D010008373000087325000815
:1000100035300008A1060008793B00080000000008
:100020000000000000000000000000003B36000857
:10003000A306000800000000593000083D36000803
:10004000B7010008B7010008B7010008B7010008B0
:10005000B7010008B7010008B7010008B7010008A0
:10006000B7010008B7010008B7010008B701000890
:10007000B7010008B7010008B7010008B701000880
:10008000B7010008B7010008B7010008B701000870
:10009000B7010008B7010008B7010008B701000860
:1000A000B7010008B7010008B7010008B701000850
:1000B000B7010008B7010008B70100088125000852
:1000C00075250008B7010008B7010008B70100084E
:1000D000B7010008B70100086D3B0008B701000830
:1000E000B7010008B7010008B7010008B701000810
:1000F000B7010008B7010008B7010008B701000800
:10010000B7010008B7010008B7010008B7010008EF
:10011000B7010008B7010008B7010008B7010008DF
:10012000B7010008B7010008B7010008B7010008CF
:10013000B7010008B7010008B7010008B7010008BF
:10014000B7010008B7010008B7010008B7010008AF
:10015000B7010008B7010008B7010008B70100089F
:10016000B7010008B7010008B7010008B70100088F
:10017000B7010008B7010008B7010008000000003F
:10018000B7010008B7010008DFF80CD000F076FADC
:1001900000480047B13B00080006002006488047A1
:1001A00006480047FEE7FEE7FEE7FEE7FEE7FEE75C
:1001B000FEE7FEE7FEE7FEE7CD360008890100080E
:1001C0002DE9F05F0546002092469B46884606468C
:1001D000814640241BE0284641464746224600F01F
:1001E00097F953465A46C01A914110D31146184602
:1001F000224600F07EF92D1A67EB01084F46224691
:100200000120002100F075F917EB00094E41201E76
:10021000A4F10104DFDC484631462A46434600F09B
:1002200000B830BCBDE8C09FD2B201E000F8012B9D
:10023000491EFBD270470022F6E710B513460A4666
:1002400004461946FFF7F0FF204610BD2DE9FE4F8A
:10025000804681EA0300C00F0C46009021F0004167
:1002600023F00045B8EB0200A94105D240462146E3
:1002700090461C460B46024623F00040104347D0F0
:10028000270DC7F30A00C3F30A510290401A0190E8
:1002900040286BDAC3F3130040F4801B00989246A9
:1002A00020B10023D2EB030A63EB0B0B01985946F4
:1002B000C0F14002504600F01CF906460D4650467B
:1002C0005946019A00F034F910EB0800614100240E
:1002D00087EA115284EAE7731A4340D0009A62B366
:1002E000019A012A4FEA075215DC001B61EB02015B
:1002F0004FF0004202EA0752CDE90042001C41F5EE
:10030000801132462B4600F06BF903B000F045B87F
:1003100040462146F9E7001B61EB0201001C41F554
:10032000801300185B412018A2F5001747EB03016A
:1003300040EAD570B6196D4111E06D084FEA3606F6
:1003400045EAC0754FEA0752001B61EB0201001C31
:1003500041F5801149084FEA3000001951413246F9
:100360002B4603B000F01CB800F02BB90098012216
:1003700040000023D0EB020263EBE07300982146BB
:100380004FEAE074B8EB000061EB0401E9E783F0A9
:1003900000435BE781F0004158E730BCBDE8C08F07
:1003A00030BCBDE8C04FFFF7DFBF2DE9FE4F81EA4B
:1003B000030404F0004421F0004100944FF0000BCE
:1003C00023F0004350EA01045ED052EA03045BD0FC
:1003D000C3F30A54C1F30A552C44A4F2F334019434
:1003E000A0FB0254C1F3130141F48011C3F31303C2
:1003F00043F4801301FB024400FB034E840A970A76
:1004000044EA815447EA8357A4FB076802958D0AA2
:1004100005FB07854FEA932C04FB0C542705029D2E
:100420004FEA065847EA1637B5EB08056EEB070C9E
:10043000870E920E47EA811742EA8312A7FB020158
:10044000B6EB0B0164EB00042B0D43EA0C335E1892
:1004500044EB1C50DA465146E7FB0201C5F3130496
:100460004FEA0B3343EA14534FEA0432019C43EA48
:100470000603A4F10C040294009CCDE900B400F042
:10048000AFF803B000F003B800200146F9E730BC34
:10049000BDE8C08F00F0004230F000400AD0C10D2E
:1004A00001F56071C0F3160042EA0151C20840072D
:1004B0001143704700200146704701F0004330B4FB
:1004C00021F0004150EA010206D00A0DA2F5607247
:1004D000C1F31301002A02DC30BC00207047440F36
:1004E00044EAC104C100E01830BC00EBC25000F087
:1004F00031B8202A04DB203A00FA02F100207047CC
:100500009140C2F1200320FA03F319439040704751
:10051000202A04DB203A21FA02F00021704721FA58
:1005200002F3D040C2F120029140084319467047BF
:10053000202A06DBCB17203A41FA02F043EAE073A7
:1005400006E041FA02F3D040C2F120029140084394
:10055000194670470029A8BF7047401C490008BFD2
:1005600020F00100704710B4B0FA80FC00FA0CF0E3
:1005700050EA010404BF10BC704749B1CCF120041B
:1005800021FA04F411FA0CF118BF012121430843A8
:10059000A3EB0C01CB1D4FEA00614FEA102042BFD4
:1005A000002010BC704700EBC35010440029A4BFCA
:1005B00010BC7047401C490008BF20F0010010BC6F
:1005C000704710B5141E73F1000408DA401C41F1A5
:1005D000000192185B411A4301D120F0010010BDC7
:1005E0002DE9F04D92469B4611B1B1FA81F202E03D
:1005F000B0FA80F220329046FFF77BFF04460F46A8
:1006000040EA0A0041EA0B0153465A46084313D018
:10061000114653EA010019D0C8F140025046FFF7D5
:1006200077FF05460E46504659464246FFF761FFA2
:10063000084305D0012004E020463946BDE8F08D8E
:100640000020054346EAE0762C4337430A986305C9
:10065000E40AA0EB08000022FD0A44EA47540A30ED
:1006600002D500200146E9E7010510196941DDE9DD
:10067000084500196941BDE8F04DA2E7064C074D59
:1006800006E0E06840F0010394E807009847103462
:10069000AC42F6D3FFF77CFD1C3C00083C3C000854
:1006A000FEE770472DE9F047044690F850009AB0F5
:1006B0000D464FF00008012813D0012084F85000A7
:1006C000304E20684FF00009B0420ED12E4F0097F7
:1006D000384602F0B9FB8246206802F0B5FB60B1F3
:1006E0000EE002201AB0BDE8F087616D41F02001F4
:1006F000616584F850900120F4E7BAF1000F09D049
:10070000606D40F0200060654FF0010884F8509063
:100710004046E7E71D4829681D4A0029816840F6E0
:100720001F7321F460411BD094F830C041EA4C3172
:10073000D5F804C041EA0C018160B168BE6801F0DF
:10074000010106F001069268314302F001021143F3
:10075000DCD1AA682968114382689A4311430EE0EC
:100760008160B168BD6801F0010105F00105926882
:10077000294302F001021143C8D181689943816085
:10078000C4E70000000004500001045000030450BE
:10079000000204502DE9F84F00270446009790F816
:1007A0005000DFF8B8930D46B846012811D0012655
:1007B00084F85060206802F043FB60B1606D40F047
:1007C000200060655FF0010784F85080384600F033
:1007D000DDB90220FBE768680C23052812D802283F
:1007E00007D0032807D0042807D0052807D0062003
:1007F00007E06B6006E0122003E0182001E04FF4F0
:1008000080706860D5E9002103EA9113206801F047
:100810001F0118444FF01F0C0CFA01FC036BC2F3CC
:10082000846223EA0C038A4013430363206802F0C6
:1008300007FB8246206802F0FFFA5AEA00001DD149
:10084000AA682968206802F003FB20686969C26809
:10085000C2F3C102520091402A69042A0FD000EB72
:1008600082002B68DFF8F8C2026E03F0F84302EA58
:100870000C020B431A4342F00041016672E0002172
:1008800002F0D4FA400320684FF0000172D002F069
:10089000CDFA90FAA0F0B0FA80F1286842036ED049
:1008A00090FAA0F0B0FA80F0814204D10022114603
:1008B000206802F0DCFA0121206802F0B7FA400358
:1008C00020684FF001015DD002F0B0FA90FAA0F07C
:1008D000B0FA80F12868420359D090FAA0F0B0FA3B
:1008E00080F0814204D100220121206802F0BFFA89
:1008F0000221206802F09AFA400320684FF00201BA
:1009000048D002F093FA90FAA0F0B0FA80F128688B
:10091000420344D090FAA0F0B0FA80F0814204D1B2
:1009200000220221206802F0A2FA0321206802F0CE
:100930007DFA400320684FF0030133D002F076FACD
:1009400090FAA0F0B0FA80F1286842032FD090FA14
:10095000A0F0B0FA80F0814204D100220321206887
:1009600002F085FA2068816811F0010F22D0ACE016
:1009700000E004E002F05AFAC0F384618DE7C0F3AE
:10098000846091E702F052FAC0F38461A2E7C0F3F9
:100990008460A6E702F04AFAC0F38461B7E7C0F3C7
:1009A0008460BBE702F042FAC0F38461CCE7C0F395
:1009B0008460D0E72A7B296850F8B03FC1F3120C5D
:1009C00023EA0C0302F0180C664A22FA0CF20A40E1
:1009D00013430360E968494577D1286841031CD077
:1009E00090FAA0F1B1FA81F1491C01F01F01092927
:1009F0004FEA403132D8002912D000BF90FAA0F15E
:100A0000B1FA81F101F1010101F01F0106FA01F6CD
:100A100009D100BFC0F3846109E0C0F38461E3E75A
:100A2000C0F38461EEE790FAA0F1B1FA81F101F12F
:100A3000010101F01F0146EA816102D1C0F3846027
:100A400003E090FAA0F0B0FA80F000F1010000F0AD
:100A50001F0000EB400041EA005132E000290ED0B7
:100A600090FAA0F1B1FA81F101F1010101F01F0149
:100A700006FA01F606D100BFC0F3846106E0C0F3B8
:100A80008461F1E790FAA0F1B1FA81F101F101017D
:100A900001F01F0146EA816102D1C0F3846003E0E6
:100AA00090FAA0F0B0FA80F000F1010000F01F0011
:100AB0002D4A00EB400002EB005041EA000141F0FA
:100AC0000071AA68206802F0C3F928482A68024227
:100AD0003FF47AAE26488168264E274B274D01F019
:100AE000E071B2421CD10E021AD422689A4202D09E
:100AF000AA427FF469AE826841F4000122F0E072FC
:100B00000A4382601E481F490068B0FBF1F000EB09
:100B10004000800000E0401E00900028FBD153E61A
:100B2000194EB24209D1CE0107D422689A4201D0AF
:100B3000AA42F4D141F080710AE06FF00045EA4228
:100B4000EDD14A02EBD422689A42E8D141F4800107
:100B5000826822F0E0720A43826035E600007F403E
:100B600000F0FF03FFFF0700000020FE00000880E8
:100B700000030450000052C700000450000204505B
:100B800040000020400D0300000084CB18BCBDE8ED
:100B9000E08F0000F8B54FF0000504002E460095E8
:100BA00002D0606D10B107E00120F8BD204600F0D2
:100BB000D5F8A66584F8506020688168C1F340715B
:100BC00019B181685B4A1140816020688168C1F376
:100BD000007179B98168584A114041F080518160B3
:100BE000564857490068B0FBF1F000E0401E009005
:100BF0000028FBD120688168C1F3007141B9616DA3
:100C000041F010016165A16D41F00101A16501256F
:100C100002F016F9616DC90600D430B1606D40F084
:100C20001000606501252846F8BD606D20F48070D5
:100C300040F0020060652068806810F0010F15D157
:100C400040488068404900F00100896801F00101D6
:100C500008433E49896801F00101084306D13C4937
:100C600060688A6822F47C1202438A60E168606BE3
:100C7000627E0843A16841EA4231084394F820109B
:100C800040EA0140012904D1A18C324A02EB4141E2
:100C90000843A16A29B101F47071E26A014342EA92
:100CA00001002268D1682C4B19400143D1602068B3
:100CB00002F0C6F80646206802F0BEF8304315D1AF
:100CC000207E94F830102268800340EA4101D06809
:100CD00044F2020398430843D06094F83800012896
:100CE0000CD02068016921F001010161206901280F
:100CF0002068016B21F00F0111D013E0D4E90F013E
:100D00000843D4E911121143084321680A6940F2EB
:100D1000FC739A43104340F001000861E6E7E26982
:100D2000521E11430163606D20F0020040F001008B
:100D3000606578E7C0FFFF5FC0FFFF7F40000020D5
:100D4000400D030000000450000104500002045054
:100D5000000304500000FEFF07C0F0FF10B586B08E
:100D6000044614216846FFF766FA10492068884255
:100D70001AD10F48C16C41F40051C164C16C01F437
:100D800000510591C16C41F00401C164C06C694619
:100D900000F004000590012000900B20019000203D
:100DA0000290044800F03EF806B010BD0000045068
:100DB000001002400008004810B590F825100024EB
:100DC000022903D00421C16301241AE001680A68E2
:100DD00022F00E020A6001680A6822F001020A602D
:100DE00090F84410036C01F01C02012101FA02F298
:100DF0005A6080F82510002180F82410816B01B121
:100E00008847204610BD70B5044600F0F5F8054649
:100E1000601C00D0641C00F0EFF8401BA042FAD325
:100E200070BD00002DE9F84FDFF898B100234FF0B6
:100E3000010C4FF0030A4FF00F090BF1040EB9E05B
:100E40000CFA03F4224070D04D68022D01D0122D0F
:100E50000ED1DD0800EB8508D8F820505E07F70EAC
:100E600009FA07F6B5430E69BE402E43C8F8206064
:100E700007685E0091F804800AFA06F508F0030896
:100E8000AF4308FA06F848EA0708C0F800804F6840
:100E9000012F05D0022F03D0112F01D0122F13D113
:100EA000D0F80880CF6828EA0508B74047EA080765
:100EB0008760D0F804800F7928EA0408C7F3001788
:100EC0009F4047EA08074760D1F804806FEA0807A7
:100ED000BF0706D1C76AA743C8F3C0049C403C4380
:100EE000C462C468AC438D68B5402543C5604C6896
:100EF000E4005ED5344C256E45F001052566246E70
:100F000023F0030504F001040094304C2E19B4685A
:100F10009D072F0F09FA07F5AC43B0F1904F05D0AC
:100F20002B4DA84204D101251CE042E0002519E028
:100F3000284DA84201D1022514E0274DA84201D135
:100F400003250FE0254DA84201D104250AE0244DD8
:100F5000A84201D1052505E0224DA84201D1062570
:100F600000E00725BD402543B560DBF800405D4645
:100F70004E689443F60300D514432C60DEF800401D
:100F800075464E689443B60300D514432C600D4D4E
:100F900008352C684E689443F60200D514432C6043
:100FA000084D0C352C684E689443B60200D51443A6
:100FB0002C605B1C0A6832FA03F57FF441AF00F045
:100FC00013B800000004014000100240000001407E
:100FD0000004004800080048000C004800100048C9
:100FE000001400480018004818BCBDE8E08F0AB1A2
:100FF0008161704781627047014800687047000056
:101000003C00002090F84120202A24D190F8402074
:10101000012A20D0012280F84020242280F841209B
:101020000268136823F0010313600268136823F455
:1010300080531360026813680B43136001680A68E9
:1010400042F001020A60202180F84110002180F85E
:101050004010084670470220704790F84120202A2F
:1010600022D190F84020012A1ED0012280F8402091
:10107000242280F841200268136823F001031360E2
:101080000268136823F4706343EA01211160016868
:101090000A6842F001020A60202180F84110002114
:1010A00080F840100846704702207047704770472C
:1010B00030B403689A691968D243D40509D4CC4383
:1010C000240606D4446C44F0010444644FF4807454
:1010D000DC6153050AD4CB431B0607D4436C43F0B1
:1010E0000803436404684FF48063E36192050AD403
:1010F000C943090607D4416C41F00201416402680A
:101100004FF40071D161416C11F00B0F02D030BC73
:1011100001F0D0BA30BC7047026891691268436B25
:10112000002B00D0184770477047000070B50400CE
:1011300004D094F84100002510B106E0012070BDF4
:1011400084F84050204600F00FFA242084F8410033
:101150002068016821F0010101606068216820F0C9
:10116000706008612068816821F400418160E06856
:101170000128A06807D040F4044021688860E06836
:10118000022803D006E040F40040F6E721684FF45F
:101190000060486020684168114A1143416020683E
:1011A000C16821F40041C160D4E904010843A16988
:1011B00040EA01202168C860D4E90701084321689A
:1011C00008602068016841F0010101606564202029
:1011D00084F84100256384F84250002070BD00006F
:1011E000008000022DE9FC4700260446019690F895
:1011F00041001F469246894620287ED1206880699A
:10120000C043000479D594F84000012875D001202E
:1012100084F84000242084F8410066644FF02008E0
:10122000E068012809D029F4544040F42050216896
:101230004860FFF7E1FE05460DE0314949EA01004B
:1012400030490840F3E7781C05D0FFF7D5FE401B76
:10125000B84219D8C7B1216888698969C0F34010BC
:10126000C1F300110843EED0206880693B46C043BB
:10127000C0064FF000024FF020012046009517D520
:1012800001F040FC68BB09E084F8418054F8440F49
:1012900040F0200044F80409267022E02168C1F8DB
:1012A0001C8084F8418084F84060002000F02CB855
:1012B00001F028FCA8B921681020C8612168C1F894
:1012C0001C800198504512D12068416841F480414A
:1012D00041603B46002220212046009501F012FC8F
:1012E00010B10120E2E708E02168C1F81C800198F4
:1012F000401C0190504593D3C6E70220D6E700007A
:1013000000200002FF2300020CBCBDE8F0877047FC
:101310002DE9F84F044690F84100DDF828A01F465B
:1013200090468B4620287ED194F8400001287AD040
:10133000012084F84000FFF75FFE0646012200907E
:101340001923D103204601F0DDFBE0BB222084F805
:101350004100102084F8420000256564C4F8248010
:1013600067856563618D3148FF274FF080784FF0C6
:101370000079FF2903D927853A46009039E0618D2D
:10138000218500903AE05946204601F0A5FB13E084
:1013900001F0E4FBB8B92068406A616A0870606ACD
:1013A000401C6062208D401E80B22085618D491EE8
:1013B0006185618D01B168B1608D3246002851466A
:1013C0002046E5D100E002E001F00AFCD0B10120A6
:1013D00000F030B85346002280212046009601F0EC
:1013E00091FB0028F3D1608DFF2804D927853A4668
:1013F00000954346C7E7608D2085009594F8282026
:101400004B46C0E721682020C86121684A68084B24
:101410001A404A6084F8410084F8425084F84050F1
:101420000020D5E7FFE70220D2E70000002400807B
:1014300000E800FE18BCBDE8E08F00002DE9F84F81
:10144000044690F84100DDF828A01F4690468B46E0
:1014500020287ED194F8400001287AD0012084F819
:101460004000FFF7C9FD0646012200901923D10371
:10147000204601F047FBE0BB212084F8410010200A
:1014800084F8420000256564C4F82480678565639C
:10149000618D3148FF274FF080784FF00079FF29A8
:1014A00003D927853A46009039E0618D2185009067
:1014B0003AE05946204601F00FFB13E001F0B6FB7D
:1014C000B8B9606A216800788862606A401C60620E
:1014D000608D401E6085208D401E80B22085618D0C
:1014E00001B168B1608D3246002851462046E5D1F1
:1014F00000E002E001F074FBD0B1012000F030B850
:101500005346002280212046009601F0FBFA002875
:10151000F3D1608DFF2804D927853A4600954346CC
:10152000C7E7608D2085009594F828204B46C0E7DA
:1015300021682020C86121684A68084B1A404A6027
:1015400084F8410084F8425084F840500020D5E7E8
:10155000FFE70220D2E700000020008000E800FE44
:1015600018BCBDE8E08F000010B586B00446142119
:101570006846FEF760FE1A49206888422ED1194C51
:10158000E06C40F00200E064E06C694600F00200AC
:101590000590C020009012200190012002900320AD
:1015A0000390042004901048FFF73CFCA06D40F429
:1015B0000010A065A06D002200F4001005901146F7
:1015C0001F2000F075F81F2000F066F80022114679
:1015D000202000F06DF8202000F05EF806B010BD6D
:1015E000005400400010024000040048704770475B
:1015F00002480168491C0160704700003C0000205F
:10160000094810B50168002441F48071016003208D
:1016100000F06EF8002000F009F808B1012401E0A4
:1016200000F01CF8204610BD0020024070B50546B1
:1016300009484FF47A7100240068B0FBF1F000F023
:10164000F9FD08B1012404E000222946501E00F0F3
:101650002FF8204670BD0000400000200EB500208D
:10166000009001900B48016E41F001010166016E8E
:1016700001F001010291816D41F080518165806D21
:1016800000F080500290684600F080F800F0BEF84C
:101690000EBD00000010024000F01F020121914029
:1016A0004009800000F1E020C0F800117047000000
:1016B000F0B40E4B1B680C46C3F30223C3F10705BD
:1016C000042D00D90425191D072901D2002300E0AB
:1016D000DB1E012606FA05F1491E214099409E4075
:1016E000761E16403143F0BC01F0A6BC0CED00E0C4
:1016F000064900F0070208684FF6FF03184040EA69
:101700000220034A10430860704700000CED00E01F
:101710000000FA051649B0F5007F0868C0F34120C3
:1017200009D0022805D0086820F4C06040F4806029
:101730000860002070470128FBD0086820F4C060D2
:1017400040F4007008600B483222006850430A4A97
:10175000B0FBF2F0401C00E0401E4A69520501D582
:101760000028F9D148694005E3D5032070470000FF
:10177000007000404000002040420F000248006816
:1017800000F4C060704700000070004030B51D4993
:101790004A68036822F00E021A434A601A490A682E
:1017A00022F480320A600C1F226822F48032226008
:1017B000154A0832136823F4803313600B1D1D682B
:1017C00025F480351D604568ED0303D5256845F493
:1017D000803525604468A40303D50C6844F4803444
:1017E0000C600179C90703D0196841F48031196090
:1017F0000079800703D5106840F480301060002025
:1018000030BD0000007000400404014002484168FF
:1018100041F0010141607047007000402DE9F84F30
:10182000044600270088E54D3E46010504F1200BE3
:101830001DD5606E78B1B0F5800F11D0B0F5000FF6
:1018400004D0B0F5400F22D001270FE0E86840F443
:101850008030E8601BE00021201D01F0FFFB03E069
:101860000021584601F090FC070010D03E46208829
:10187000C00426D5A06EC0B1B0F1807F1AD0B0F1FF
:10188000007F0DD0B0F1407F19D0012718E0D5F8C6
:101890008800616E20F440000843C5F88800E6E740
:1018A000E86840F48030E86009E00021201D01F084
:1018B000D5FB03E00021584601F066FC0746F7B16E
:1018C0003E46206880033AD5A86D4FF00008C0005E
:1018D00009D4A86D40F08050A865A86D4FF00108AC
:1018E00000F080500090DFF8D8A2DAF8001041F440
:1018F0008071CAF80010FFF77FFB814610E0D5F831
:101900008800A16E20F040700843C5F88800D8E731
:10191000FFF772FBA0EB0900022801D9032705E0BD
:10192000DAF80000C005F3D5002F7CD04FEA070697
:10193000B8F1000F03D0A86D20F08050A865207882
:10194000C00707D0D5F88800A16B20F0030008433A
:10195000C5F888002078800707D5D5F88800E16BA6
:1019600020F00C000843C5F888002078400707D510
:10197000D5F88800216C20F030000843C5F88800B5
:101980002078000707D5D5F88800616C20F0C000EA
:101990000843C5F888002078C00607D5D5F8880028
:1019A000A16C20F440700843C5F8880020788006B8
:1019B00007D5D5F88800E16C20F440600843C5F8ED
:1019C00088002088800507D5D5F88800E16D20F4CF
:1019D00040200843C5F888002088400507D5D5F881
:1019E0008800216E20F440100843C5F88800207854
:1019F000400607D5D5F88800216D20F440500843F3
:101A0000C5F888002078000607D5D5F88800616DF4
:101A100020F440400843C5F888002088C00509D557
:101A2000D5F8880000E01CE0A16D20F440300843A8
:101A3000C5F8880020884FF0006780044FF0806868
:101A40004FD5D5F88800E16E20F040600843C5F816
:101A50008800E06EB8423CD1E86840F48010E8604D
:101A60003FE0D5F8900010F4407015D0D4F8841001
:101A7000814211D0D5F89000D5F8901020F4407034
:101A800041F48031C5F89010D5F8901021F48031E0
:101A9000C5F89010C5F89000C00710D0FFF7ACFA59
:101AA000074641F2883906E0FFF7A6FAC11B49450F
:101AB00001D903263CE7D5F890008007F4D5D5F886
:101AC0009000D4F8841020F440700843C5F89000CA
:101AD0002EE7404505D10121201D01F0BFFA00B1DC
:101AE00006462068000317D5D5F88800216F20F03E
:101AF00040600843C5F88800206FB84204D1E86808
:101B000040F48010E86007E0404505D10121201D28
:101B100001F0A4FA00B106462068400317D5D5F8B5
:101B20008800616F20F040600843C5F88800606F4E
:101B3000B84204D1E86840F48010E86007E040450E
:101B400005D10121201D01F089FA00B10646208847
:101B500040041AD5D5F88800A16F20F04050084302
:101B6000C5F88800A06FB0F1805F03D0B0F1005FCE
:101B700005D00AE00221201D01F070FA03E00221E5
:101B8000584601F001FB00B106462088000407D545
:101B9000D5F88800E16F20F080400843C5F8880040
:101BA0002068C00307D555F8880FD4F8801020F0BE
:101BB000004008432860304600F004B8001002409E
:101BC0000070004018BCBDE8E08F00002DE9F04730
:101BD0000F46050058D03F4E306800F00700B8426D
:101BE00009D2306820F0070038433060306800F0D8
:101BF0000700B84248D12878374CC0072CD0686815
:101C0000032811D0022812D0216898B14905002973
:101C10003ADAA16821F003010143A160FFF7ECF972
:101C2000804641F2883910E021688901EFE7216898
:101C30008903ECE78907EAE7FFF7DEF9A0EB080183
:101C4000494502D90320BDE8F087A068696800F023
:101C50000C00B0EB810FEFD12878800705D5A06884
:101C6000A96820F0F0000843A060306800F0070089
:101C7000B8420BD9306820F0070038433060306834
:101C800000F00700B84201D00120DCE728784007C7
:101C900005D5A068E96820F4E0600843A0602878D2
:101CA000000706D5A068296920F4605040EAC10009
:101CB000A06000F03BF8A168084AC1F30311515C31
:101CC00001F01F01C84006490860BDE8F047002048
:101CD000FFF7ACBC0020024000100240D43B0008DB
:101CE000400000200548064900688968054AC1F39C
:101CF0000221515C01F01F01C840704740000020E4
:101D000000100240143C0008054806490068896834
:101D1000054AC1F3C221515C01F01F01C840704760
:101D20004000002000100240143C000870B5254916
:101D3000002318468A68CC6812F00C0204F00306EF
:101D4000214C4FEA640509D00C2A05D0042A26D07C
:101D5000082A00D1284670BD012E10D10B681B0740
:101D600004D4D1F89430C3F3032302E00B68C3F327
:101D70000313164E56F823307AB10C2AEBD1C868FB
:101D800000F00302C868C0F30210401C022A08D009
:101D9000032A09D0B3FBF0F008E0184670BD2046D6
:101DA00070BDB4FBF0F001E0B5FBF0F0CA68C968A3
:101DB000C2F306225043C1F34161491C4900B0FB04
:101DC000F1F070BD001002400024F400E43B000874
:101DD0002DE9F84305007CD0FD4CA06800F00C060E
:101DE000E06800F003072878C00661D576B10C2EB4
:101DF00001D1012F0AD0A8690028206878D040F0CE
:101E000001002060FFF7F8F8804659E0206880075D
:101E100002D5A8690028DED0286A2168090703D501
:101E2000216801F0F00104E0D4F89410F02202EAF5
:101E30001111884215D901F02BFA002849D12068E8
:101E400040F0080020602068296A20F0F000084374
:101E500020606068E96920F47F4040EA012060600A
:101E600015E0206840F0080020602068296A20F012
:101E7000F000084320606068E96920F47F4040EA90
:101E800001206060286A01F003FA0028D6D1FFF72C
:101E90004DFFA168CF4AC1F30311515C01F01F014E
:101EA000C840CD4908600020FFF7C0FB00287DD165
:101EB0002FE000BFFFF7A0F8A0EB0800022876D8BB
:101EC00020688007F6D5206840F008002060206870
:101ED00001E0BBE00CE0296A20F0F000084320603C
:101EE0006068E96920F47F4040EA0120606010E00A
:101EF00020F001002060FFF77FF8804606E000BF79
:101F0000FFF77AF8A0EB08000228D8D820688007ED
:101F1000F6D42878C00740D0082E18D00C2E01D156
:101F2000032F14D06868B0F5803F17D0B0F5A02F0C
:101F3000206817D020F480302060206820F48020B2
:101F400020606868E0B1FFF757F8804614E0206829
:101F5000800322D56868002878D01EE0206840F40D
:101F60008030EDE740F480202060F7E7FFF744F889
:101F7000A0EB08006428A2D820688003F6D50CE006
:101F8000FFF73AF8804605E0FFF736F8A0EB0800C7
:101F9000642894D820688003F6D4287880073BD53D
:101FA000042E11D00C2E04D1022F01E036E1A1E065
:101FB0000AD0E868002820681ED040F480702060B5
:101FC000FFF71AF807460CE0206840050CD5E868D2
:101FD0000028C1D008E000BFFFF70EF8C01B0228A0
:101FE00093D820684005F7D56068297C20F0F85028
:101FF00040EA016060600FE020F480702060FEF72E
:10200000FBFF074605E000BFFEF7F6FFC01B0228F6
:1020100070D820684005F7D42878000729D568696A
:102020000028D4F8940012D040F00100C4F89400C5
:10203000FEF7E2FF074604E0FEF7DEFFC01B0228C2
:1020400058D8D4F894008007F6D512E0EDE020F0DF
:102050000100C4F89400FEF7CFFF074605E000BF7B
:10206000FEF7CAFFC01B022844D8D4F894008007AA
:10207000F6D42878400768D5A06D0027C00008D4A2
:10208000A06D40F08050A065A06D012700F0805049
:10209000009052480168C90512D40168814641F494
:1020A00080710160FEF7A8FF804605E0FEF7A4FFFF
:1020B000A0EB080002281DD8D9F80000C005F5D50E
:1020C000A868012817D00528D4F8900018D020F06F
:1020D0000100C4F89000D4F8900020F0040000BF84
:1020E000C4F89000A86841F28839D0B1FEF784FFA7
:1020F000804611E06BE0D4F8900040F00100EFE77B
:1021000040F00400C4F89000F5E700BFFEF774FF4C
:10211000A0EB080149455AD8D4F890008007F5D5BE
:102120000EE0FEF769FF804606E000BFFEF764FFA1
:10213000A0EB0801494570D8D4F890008007F5D489
:102140001FB1A06D20F08050A065A86AF0B30C2EDE
:102150006BD00228206820F08070206004D02068B6
:1021600010F0205F47D04AE0FEF746FF064604E045
:10217000FEF742FF801B02284FD820688001F7D469
:10218000286BE96A000110380843696BAA6B0902E1
:10219000120941EA42410843A98F114A490802EB5A
:1021A0004151084395F840104908120102EB416182
:1021B0000843E060206840F080702060E06840F0F4
:1021C0008070E060FEF718FF054610E02BE024E089
:1021D00000100240D43B0008400000200070004086
:1021E0000000E0FFFEF708FF401B022815D820681A
:1021F0008001F7D517E0E06820F00300E060E068B8
:102200000B490840E060FEF7F7FE054608E000BF16
:10221000FEF7F2FE401B022802D90320BDE8F88336
:1022200020688001F4D40020F8E70120F6E70000E0
:10223000FFFFEEFE10B5401EB0F1807F01D30120FC
:1022400010BD4FF0E02460610F21601700F0F4FE34
:102250000020A06107202061002010BD704770475A
:102260002DE9F04102680446D0691168936810F0C6
:102270000F0F4FF000055BD003F0010601F49077DB
:10228000374369D0C70707D0CF0505D501271762A7
:10229000626F42F001026267820708D5DA0706D052
:1022A000276802223A62626F42F0040262674207C4
:1022B00008D5DA0706D0236804221A62626F42F05A
:1022C0000202626702070AD501F02002324306D0FB
:1022D000236808221A62626F42F008026267626F26
:1022E000002A32D0800605D5880603D5216E09B1B3
:1022F00020468847606F000703D420688068400646
:1023000025D5204601F0A0FA20688168490619D534
:10231000816821F040018160E06E98B120498163BD
:10232000E06EFEF749FD00280FD0E06E816B06E0FD
:10233000860611D58E060FD5216E1EE02046BDE81B
:10234000F04108472046FFF78AFFBDE8F0812046AC
:10235000FFF785FF6567F8E7C60209D55B0207D579
:102360004FF4801010622046BDE8F041FFF776BFC1
:10237000030605D50B0603D5616E0029DED1E4E71F
:102380004006E2D54806E0D51168204621F040011C
:102390001160202184F87110656600F0E9F8D4E737
:1023A0003538000810B5040003D094F8710010B15E
:1023B00007E0012010BD002084F87000204600F0E6
:1023C00027F8242084F871002068016821F00101B9
:1023D0000160204601F048FA0128EBD0606A10B194
:1023E000204601F095F92068416821F49041416050
:1023F0002068816821F02A0181602068016841F02D
:10240000010101602046BDE8104001F0E5B900007F
:10241000F0B587B0044614216846FDF70CFF254F40
:102420002668002224490223032407254FF0904008
:10243000BE421AD10E6E46F480460E660E6E06F44B
:1024400080460596CE6C46F00106CE64C96C02AE9D
:1024500001F0010105916102CDE9001386E8340025
:102460006946FEF7DFFC07B0F0BD144FBE42FAD15B
:102470008E6D46F400368E658E6D06F40036059638
:10248000CE6C46F00106CE64C96C02AE01F00101CB
:1024900005910C21CDE9001386E834006946FEF76A
:1024A000C1FC002211462620FFF702F92620FFF783
:1024B000F3F8D8E700380140001002400044004023
:1024C0002DE9F843044690F871001F4616460D4664
:1024D00020284BD1C5B1BEB194F87000012845D079
:1024E000012084F870004FF00008C4F874802120A7
:1024F00084F87100FEF780FDA4F850608146A4F8CE
:1025000052604FF4805615E00120BDE8F883802129
:10251000204601F0F9FAD8B9A068B04201D120698B
:10252000C0B115F8010B21680885B4F85200401EAF
:10253000A4F85200B4F852004B464FF00002009746
:102540000028E4D14FF04001204601F0DDFA30B11F
:102550000320DAE735F8020BC0F30800E3E7202098
:1025600084F8710084F870800020CEE70220CCE768
:102570007047FEE70148FEF79BBD000020010020E8
:102580000148FEF7C9BD00002001002010B5806A97
:102590000021826B9163C26B916390F841106029B6
:1025A00002D0FEF7C1FD10BD202180F84110FEF7DA
:1025B0007DFD10BD10B50022CC074FF0280306D0DA
:1025C00090F84140422233EA040400D0F2228C0702
:1025D00007D590F8414042F04402A34301D042F0B5
:1025E000B0024B0701D542F0B80211238B4301D151
:1025F00042F0900212238B4301D142F06002006846
:1026000001689143016010BD01688A69D243920755
:1026100001D400228A6200688169C943C90703D0D6
:10262000816941F00101816170472DE9F041044663
:1026300090F841002821814320684FF000054FF0B9
:10264000080304D0C36184F84050BDE8F08181697B
:10265000C1F300478169FE2202EA11468168C1F395
:102660000902C168D4F80CC001F0FE01BCF1020FF0
:1026700017D14FF0060C06F006060CEAD21C664590
:102680000ED1A16C491CA164A16C0229DDD1A56405
:10269000C36184F8405039462046FEF708FDD4E770
:1026A0000E4604212046FFF785FF84F8405032464D
:1026B000F1E7000070B5044690F84100002584F869
:1026C0004250314AE2626585626C0A4362642026A8
:1026D000282825D0292823D02A2821D007212046A0
:1026E000FFF768FF94F84100602801D084F841604A
:1026F00025636563206801684A04244902681AD585
:1027000022F480420260A06B002833D0816384F8F9
:102710004050A06BFEF750FB00282BD0A06B1CE0B4
:1027200003212046FFF746FF282084F84100256357
:1027300017486063DEE7120413D5026822F40042F2
:102740000260E06B002815D0816384F84050E06B94
:10275000FEF732FB00280DD0E06B816BBDE87040C6
:10276000084794F84100602805D084F8405020467E
:10277000FEF7DAFC70BD84F8416084F840502046D2
:10278000FEF794FC70BD00000000FFFF8D250008DF
:10279000B929000870B504461548E0620025256394
:1027A000202084F8410084F84250C8436563400704
:1027B00011D42068406A616A0870606A401C6062D7
:1027C000208D40B1401E2085608D401E6085606C6C
:1027D00040F00400606407212046FFF7EBFE21680B
:1027E0001020C86184F840502046FEF790FD70BD6F
:1027F0000000FFFF2DE9F041044600680E4607681F
:102800002025C56121680820C86107212046FFF7FF
:10281000D1FE2068416841F4004141602068416870
:102820002D4A114041602046FFF7EEFEF843410477
:1028300001D4A06B02E0000404D4E06B10B1006886
:1028400040686085F04340070DD42068406A616AA3
:102850000870606A401C6062208D20B1401E208597
:10286000608D401E6085608D18B1606C40F0040082
:1028700060640020206384F842006063616C69B189
:10288000616C2046FFF716FF94F84100282811D10B
:1028900031462046BDE8F041FFF77CBFE26A0F49B0
:1028A0008A4209D0E16284F8415084F84000204611
:1028B000FEF72DFDBDE8F08194F8411084F84150F9
:1028C000222984F84000204602D0FEF790FEF1E76E
:1028D000FEF78CFEEEE7000000E800FE0000FFFFC0
:1028E00070B50025044680F8425090F84110282029
:1028F000292911D094F841102A290CD184F84100DB
:102900002220206302212046FFF754FE84F8405025
:102910002046FEF76BFE70BD84F841002120206345
:1029200001212046FFF746FE84F840502046FEF77E
:102930005EFE70BD2DE9F0410446006890460E46EB
:102940008069C043C00633D40025202720688069F1
:10295000C043800615D5701CF8D0FEF74DFBA0EBE8
:102960000800B04201D8002EF0D154F8440F40F0D6
:10297000200044F804096770A57025700120BDE8A7
:10298000F08121681020C8612068C7612046FFF7E8
:102990003BFE54F8440B4168064A114041602068F0
:1029A00040F0040044F820096777A5772577E5E72C
:1029B0000020E4E700E800FE2DE9F0410446C06A8B
:1029C0000F4694F8401001291DD0012184F84010D1
:1029D000FE43404BF1064FF0807C6FEA020531D494
:1029E000E9062FD4628D102182B12268D161616C19
:1029F00041F00401616408B160455ED1616C20461C
:102A0000FFF758FE59E00220BDE8F08194F841201C
:102A1000282A02D1B0F1007F04D094F84120292A5D
:102A200005D00CE039462046FFF7B4FE45E0984259
:102A300005D02068C1612046FFF7E6FD3AE0206836
:102A4000C1613AE0710715D4690713D4618D61B192
:102A50002168496A626A1170616A491C6162218D4C
:102A6000491E2185618D491E6185618D29BB984272
:102A700020D122E0310706D4290704D43946204664
:102A8000FFF7D3FD19E0B10717D4A90715D4618D5D
:102A900069B1606A216800788862606A401C60627F
:102AA000608D401E6085208D401E208505E06045BC
:102AB00000D010B92046FFF713FFB00605D4A806D2
:102AC00003D439462046FFF795FE002084F84000E5
:102AD0009AE700000000FFFFF0B50568059C6868F4
:102AE0004FF48066064FC1F3090106EA545641EAE5
:102AF00002413E431943B043214308436860F0BD9F
:102B0000FF63FF032DE9F0411D4617460E460446BC
:102B1000DDF8188008E0681C06D0FEF76DFAA0EB1F
:102B20000800A8420BD855B12068806936EA000039
:102B300012D00020B842EED00020BDE8F08154F859
:102B4000440F40F0200044F8040920206070002069
:102B5000A07020700120F0E70120EBE72DE9F041A3
:102B6000002690460F460446202525E04246394679
:102B70002046FFF7DFFE78BB20688069C0438006EF
:102B800013D420688169C943490701D4218DC1B993
:102B9000C56154F8440B4168104A1140416044F843
:102BA00020696577A677267716E0FEF725FAA0EB71
:102BB0000800B84208D83FB120688069C043400788
:102BC000D4D40020BDE8F08154F8440F40F0200038
:102BD00044F80409657026700120F3E700E800FE60
:102BE00070B516460D4604460DE03246294620468D
:102BF000FFF7A0FE08B1012070BDFEF7FDF9801BB4
:102C0000A84207D835B120688069C0438006ECD45B
:102C1000002070BD54F8440F40F0200044F804092F
:102C2000202060700020A0702070E4E770B5164688
:102C30000D4604460FE0324629462046FFF77AFE4D
:102C400008B1012070BD681C05D0FEF7D5F9801BC6
:102C5000A84207D835B120688069C0438007EAD40C
:102C6000002070BD54F8440F40F0200044F80409DF
:102C7000202060700020A0702070E2E738B50020AE
:102C80003749034602460090A1F1C40000F03EFB24
:102C900004464FF4FA752846FEF7B5F84FF0640382
:102CA0004FF02802ECB32FA12D487838FFF708FC2D
:102CB0002846FEF7A8F82A49A1F1C40000F0CEFB8F
:102CC000274D2C4C294695ED060AA1F1C40084ED50
:102CD000030A00F097FBB5F91200294600EE100A2E
:102CE000B8EEC00A84ED070AB5F9140000EE100A28
:102CF000B8EEC00A84ED080AB5F9160000EE100A15
:102D0000A1F1C400B8EEC00A84ED090A00F04EFB40
:102D1000B5F90C0000EE100AB8EEC00A84ED040A02
:102D200000E01AE0B5F90E0000EE100AB8EEC00A95
:102D300084ED050AB5F9100000EE100AB8EEC00ADD
:102D400084ED060A84ED0A0A00F01CF884ED0E0AF0
:102D5000BDE838403220FEF756B807A1A4E70000CE
:102D6000E40100200A206D70755F6E6F745F6F6BF9
:102D7000200A0000000000200A206D70755F6F6B54
:102D8000200A000010B5264C2DED048BD4EC020A6D
:102D900030EE811AC0EE811AC4ED0B1A94ED0D1AB3
:102DA00030EE410AF0EE410A41EE800AC4ED0C0A11
:102DB00031EE600A10EE100AFDF76CFB41EC100BCF
:102DC00000F0EAFE00EE100AD4ED020AB8EEC00AE6
:102DD00020EE200A10EE100AFDF75CFB41EC180B08
:102DE0002068FDF757FB41EC190BE06AFDF752FB39
:102DF0009FED0C1B53EC112BFDF7CCFA53EC192B68
:102E0000FDF7D3FA53EC182BFDF720FAFDF755FB2D
:102E1000206094ED0C0A84ED0D0ABDEC048B10BD0E
:102E200000000020000000000000F03F00EB8100E7
:102E3000006E00F0F84070478068C0F3C000704733
:102E40008068C0F3800070478068C0F380007047DE
:102E5000042310B503EAD1531844C1F304510724E5
:102E60008C4043698A40A3431343436110BD00EB88
:102E70008100016E21F0004111430166704700009E
:102E800030B589B000240694079418216846089448
:102E9000FDF7D1F9164815490425C0E900148460EE
:102EA000C460C0E90445047601214176C16180F81F
:102EB00020408462C46280F83040446380F8384027
:102EC000FDF768FE06A90A480694FDF7EBFB0948E2
:102ED00000900620CDE901047F200594CDE903058B
:102EE00069460348FDF756FC09B030BD00000450A8
:102EF000BC0000200200300430B587B014216846C1
:102F0000FDF799F91F48C16C41F00401C164C16C1F
:102F100001F004010591C16C41F08001C164C16CF4
:102F200001F080010591C16C41F00101C164C16CE7
:102F300001F001010591C16C41F00201C164C06C56
:102F40004FF0904500F00200059000222021284615
:102F5000FEF74DF84FF4005000900B480024CDE9E7
:102F6000010469460948FDF75DFF2020009001201B
:102F7000CDE90104694628460394FDF753FF07B0E5
:102F800030BD000000100240000011100008004891
:102F90000E4810B50C4901600D4941600021012225
:102FA000C0E90212016141618161C1610162FEF704
:102FB000BDF800210548FEF725F8BDE810400021C6
:102FC0000248FEF74AB800000054004020010020EB
:102FD000EC9C90100948084901604FF4E1314160D0
:102FE000002181600C22C160C0E904128161C161CD
:102FF00001624162FFF7D6B9003801404400002069
:103000000B480A490C2201604FF4E1314160002174
:103010008160C160C0E9041281614022C161C0E9E0
:1030200008129203C0E91021FFF7BCB90044004028
:103030006C010020FEE770470907090E002806DA38
:1030400000F00F0000F1E02080F8141D704700F13F
:10305000E02080F800147047704700002DE9F0412F
:10306000444C05468846E0680026810728680DD054
:10307000E16801F00301814216D1A8B1E0686968F6
:10308000C0F30210401C88420ED120E0012804D079
:10309000022805D0032807D108E02168890701E04C
:1030A00021684905002907DB01265FE021688903C3
:1030B00002D421684903F5E7E1686A686FF00F03FD
:1030C00021F0730103EB021211430143E160206818
:1030D00020F080602060FDF78FFF074605E000BF0D
:1030E000FDF78AFFC01B022837D820680001F7D4FB
:1030F000B8F1000F18D0B8F1010F1ED0287D4FF0A5
:103100007E41400801EB4060A96840EA0120216946
:10311000194A114008432061206840F08060206017
:10312000FDF76AFF07461AE0A868E9680002090986
:1031300040EA41402169114AEBE7288A10494008DA
:1031400001EB4050A96840EA012021690D4AE0E7FF
:10315000FDF752FFC01B022801D9032606E02068B4
:103160000001F5D52069A969084320613046BDE812
:10317000F081000000100240FF80FFF9FF80FDFF9A
:103180000000E0FFFF809FFF2DE9F0413D4C064627
:103190008846E0680025810730680DD0E16801F0BD
:1031A0000301814216D1A8B1E0687168C0F3021032
:1031B000401C88420ED120E0012804D0022805D00E
:1031C000032807D108E02168890701E02168490543
:1031D000002907DB012551E02168890302D4216819
:1031E0004903F5E7E16872686FF00F0321F073019E
:1031F00003EB021211430143E160206820F080508C
:103200002060FDF7F9FE074605E000BFFDF7F4FE7C
:10321000C01B022829D820688000F7D4B8F1000F1D
:1032200015D0307C4FF07E41400801EB4060B16822
:1032300040EA01206169144A114008436061206836
:1032400040F080502060FDF7D7FE07460FE0B068E1
:10325000F1680002090940EA414061690B4AEBE765
:10326000FDF7CAFEC01B022801D9032506E020682D
:103270008000F5D560697169084360612846BDE842
:10328000F081000000100240FF80FFF9FF80FDFF89
:10329000F8B51C4D06460024A86DC00002D5FEF707
:1032A0006DFA0DE0A86D40F08050A865A86D00F0A3
:1032B00080500090FEF762FAA96D21F08051A96557
:1032C000B0F5007F04D0802E07D94FF003040AE048
:1032D000802E08D9A02E01D804E001D1022402E0FA
:1032E000702E00D101240848016821F00701214314
:1032F0000160006800F00700A04201D00120F8BD85
:103300000020F8BD00100240002002402DE9FF47D8
:1033100006467520DDF830908DF8080042F0D005A3
:1033200098460F460D700523022229463046FDF7C8
:1033300059FF40BB4FF47A74012302AA2946304654
:103340000094FEF77BF8F0B9012303AA2946304622
:103350000094FDF7DDFFB0B903E0032004B0BDE841
:10336000F0879DF80C006828F7D16B208DF80400D9
:1033700000208DF80500022301AA2946304600945A
:10338000FEF75CF808B10120E8E70722394630462D
:1033900000F0EBF842463946304600F093F84A46D2
:1033A0003946304600F0F6F80020D7E72DE9FF4116
:1033B0000C463B218DF80C10277806464FF47A75A1
:1033C000012303AA394630460095FEF737F8002856
:1033D000F6D1062301AA394630460095FDF798FF3D
:1033E0000028F6D1BDF8040040BAA081BDF806005F
:1033F00040BAE081BDF8080040BA208204B0002045
:10340000BDE8F0812DE9FF410C4643218DF80C10F9
:10341000277806464FF47A75012303AA39463046C9
:103420000095FEF70BF80028F6D1062301AA3946CD
:1034300030460095FDF76CFF0028F6D1BDF804007A
:1034400040BA6082BDF8060040BAA082BDF808000C
:1034500040BAE08204B00020BDE8F081FEB50D4620
:1034600041218DF808102F7806464FF47A74012315
:1034700002AA394630460094FDF7E0FF0028F6D155
:10348000022301AA394630460094FDF741FF002887
:10349000F6D1BDF80400DFED090A40BA00B200EE33
:1034A000100A0020B8EEC00A80EE201A9FED040A30
:1034B00031EE000A85ED060AFEBD00000000AA43B9
:1034C000B81E12422DE9FE43074691F800801C20E9
:1034D00016460D468DF808004FF47A74012302AAAF
:1034E000414638460094FDF7A9FF0028F6D1012394
:1034F00001AA414638460094FDF70AFF0028F6D19C
:103500009DF8040000F0E70040EAC6008DF80400D2
:10351000012301AA414638460094FDF78FFF002899
:10352000F6D136B1012E07D0022E0CD0032E07D1D2
:103530000CE09FED080A01E09FED070A85ED020A05
:10354000002000F00FB89FED050AF7E79FED040A91
:10355000F4E70000000080380000003900008039E6
:103560000000003A06BCBDE8F8837CB504460D783F
:1035700019208DF804008DF805204FF47A76022387
:1035800001AA294620460096FDF758FF0028F6D1EB
:103590007CBD00002DE9FE43074691F800801B200A
:1035A00016460D468DF808004FF47A74012302AADE
:1035B000414638460094FDF741FF0028F6D101232B
:1035C00001AA414638460094FDF7A2FE0028F6D134
:1035D0009DF8040000F0E70040EAC6008DF8040002
:1035E000012301AA414638460094FDF727FF002831
:1035F000F6D136B1012E07D0022E0CD0032E07D102
:103600000CE09FED080A01E09FED070A85ED010A35
:10361000002000F00FB89FED050AF7E79FED040AC0
:10362000F4E700002D23FA3B2D237A3C90C1F93CAE
:1036300090C1793D06BCBDE8F8837047FDF7D8BF5F
:10364000F0B5B9B0442122A8FCF7F5FD142133A848
:10365000FCF7F1FD88216846FCF7EDFD0224E0014E
:103660002590102026900A2022942F9001262C9439
:10367000CDE92D460727CDE9307422A83294FEF714
:10368000A7FB0F20002533900320CDE934053695A4
:10369000042133A83795FEF799FA0F9544F24300B9
:1036A00014950090E0061E90082003900E95CDE939
:1036B00001464005CDE90640CDE904746846FEF7B1
:1036C000ADF82002FEF726F839B0F0BD0D480168CC
:1036D00041F4700101600C48016841F00101016092
:1036E000002181600268094B1A4002608214C260A6
:1036F000026822F48022026081610249C00380399D
:103700000860704788ED00E000100240FFFFF6EA15
:1037100090F82410C90706D001684A68836A22F429
:1037200000321A434A6090F82410890706D50168D0
:103730004A68C36A22F480321A434A6090F824101F
:10374000490706D501684A68036B22F480221A43B0
:103750004A6090F82410090706D501684A68436B4F
:1037600022F400421A434A6090F82410C90606D594
:1037700001688A68836B22F480521A438A6090F849
:103780002410890606D501688A68C36B22F40052AA
:103790001A438A6090F82410490611D501684A68D6
:1037A000036C22F480121A434A60016CB1F5801F49
:1037B00006D101684A68436C22F4C0021A434A6089
:1037C00090F82410090606D501684A68806C22F436
:1037D000002202434A607047F8B500260446466757
:1037E000FDF70AFC0546206800686FF07E47000779
:1037F00008D52B4600224FF400112046009700F018
:1038000083F960B92068006840070AD52B4600227A
:103810004FF480012046009700F076F908B10320AC
:10382000F8BD202084F8710084F8720084F870607C
:103830000020F8BD10B5806A0021A0F85A10A0F849
:103840005210FEF70CFD10BD01680A6822F4907258
:103850000A6001688A6822F001028A60202180F8EB
:1038600072100021016670472DE9F041044601689D
:1038700080682369E669184363691025002733438C
:103880001843954A0B68954E334003430B602068FC
:103890004168E36821F44051194341602168A069FF
:1038A000914201D0236A18438B6823F430630343A9
:1038B0008B608B4B21688B4899420DD1D0F88800E2
:1038C00010F0030006D001285AD0022856D0032851
:1038D00059D157E0012556E0834B99420BD1D0F8DE
:1038E000880010F00C0047D0042849D0082845D0A3
:1038F0000C2848D146E07D4B99420BD1D0F8880086
:1039000010F0300038D010283AD0202836D0302897
:1039100039D137E0764B99420BD1D0F8880010F0BE
:10392000C00029D040282BD0802827D0C0282AD1F9
:1039300028E0704B99420ED1D0F8880010F4407006
:103940001AD0B0F5807F1BD0B0F5007F16D0B0F54F
:10395000407F18D116E0914215D1D0F8880010F4BC
:10396000406009D0B0F5806F0AD0B0F5006F05D087
:10397000B0F5406F07D105E0002504E0022502E024
:10398000042500E008255C4B00264FF400409142DE
:103990003DD135B1022D07D0042D07D0082D10D10F
:1039A00007E0FEF79FF903E0184602E0FEF7BEF9D4
:1039B000A8B3626802EB4201814202D8B0EB023F39
:1039C00001D9012775E0DFF834815DB1022D0CD0FB
:1039D000042D13D0082DF4D150082905401846F1C4
:1039E000000105E0FEF77EF90AE050084449F5E7DA
:1039F0000023FCF7E5FBA0F5407156E0FEF796F9D1
:103A00006268010E0302500818187141F0E7E1697D
:103A10004FF6EF7881422FD1092DD2D200E048E055
:103A2000DFE805F006092005230505052600C8E79F
:103A3000FEF758F901E0FEF767F94100D4F80400F9
:103A400001EB5001B1FBF0F080B2A0F11001414553
:103A5000B7D84FF6F0710140C0F34200014320682F
:103A6000C16026E027496068EAE7FEF75FF9E4E70E
:103A70004FF480316068E3E7092DA2D2DFE805F05A
:103A800006091E052205050525009AE7FEF72AF915
:103A900001E0FEF739F90146606801EB500100BF13
:103AA000B1FBF0F080B2A0F11001414589D8216846
:103AB000C860266638466666BDE8F081606803EB3C
:103AC0005001EDE7FEF732F9E5E7616800EB5100E0
:103AD000B0FBF1F0E6E7000000800040F369FFEF83
:103AE00000380140001002400044004000480040FF
:103AF000004C0040005000400024F400FFFC0F0088
:103B0000000024F40048E8012DE9F04198461746EA
:103B10000E460446069D1DE0681C1BD02DB1FDF726
:103B20006BFAA0EB0800A84214D92068016821F4C0
:103B3000D07101602068816821F00101816020203E
:103B400084F8710084F87200002084F8700003206B
:103B5000BDE8F0812068C06936EA000004D000208A
:103B6000B842D9D00020F3E70120F9E70148FEF779
:103B700077BB00006C010020FEE702E008C8121FBE
:103B800008C1002AFAD170477047002001E001C146
:103B9000121F002AFBD1704782B0CDE9000121F04D
:103BA000004001909DED000B02B051EC100B7047EE
:103BB000FDF726FDFFF744FDFFF79EF9FFF720FA1A
:103BC000FFF7E6F9FFF706FAFFF75AF9FFF756F89D
:103BD000FCE70000000000000000000001020304F8
:103BE00006070809A0860100400D0300801A0600A0
:103BF00000350C0040420F0080841E0000093D008B
:103C000000127A000024F40000366E010048E8013A
:103C1000006CDC0200000000010203043C3C0008D0
:103C200000000020440000007A3B0008803C0008AF
:103C300044000020BC0500008A3B00080020194613
:103C40000020194600002041000000000000000094
:103C50000000000000000000000000000000000064
:103C60000000000000000000000000000000000054
:103C700000000000000000000000000000093D00FE
:040000050800018965
:00000001FF
